8=FIX.4.2|9=82|35=A|34=1|49=AB1013425_PRICE|52=20141015-08:47:39.977|56=HIQFIX|98=0|108=30|141=Y|10=189|8=FIX.4.2|9=64|35=0|34=2|49=AB1013425_PRICE|52=20141015-08:48:10.937|56=HIQFIX|10=089|8=FIX.4.2|9=64|35=0|34=3|49=AB1013425_PRICE|52=20141015-08:48:41.933|56=HIQFIX|10=090|8=FIX.4.2|9=64|35=0|34=4|49=AB1013425_PRICE|52=20141015-08:49:12.930|56=HIQFIX|10=087|8=FIX.4.2|9=136|35=V|34=5|49=AB1013425_PRICE|52=20141015-08:49:16.321|56=HIQFIX|262=-898809423|263=1|264=1|265=0|267=0|146=1|55=SAP|48=4663789|207=XETR|10=150|8=FIX.4.2|9=64|35=0|34=6|49=AB1013425_PRICE|52=20141015-08:49:46.621|56=HIQFIX|10=093|8=FIX.4.2|9=64|35=0|34=7|49=AB1013425_PRICE|52=20141015-08:50:16.901|56=HIQFIX|10=084|8=FIX.4.2|9=64|35=0|34=8|49=AB1013425_PRICE|52=20141015-08:50:46.922|56=HIQFIX|10=091|8=FIX.4.2|9=64|35=0|34=9|49=AB1013425_PRICE|52=20141015-08:51:16.951|56=HIQFIX|10=092|8=FIX.4.2|9=65|35=0|34=10|49=AB1013425_PRICE|52=20141015-08:51:47.705|56=HIQFIX|10=134|8=FIX.4.2|9=65|35=0|34=11|49=AB1013425_PRICE|52=20141015-08:52:17.914|56=HIQFIX|10=135|8=FIX.4.2|9=65|35=0|34=12|49=AB1013425_PRICE|52=20141015-08:52:48.883|56=HIQFIX|10=145|8=FIX.4.2|9=65|35=0|34=13|49=AB1013425_PRICE|52=20141015-08:53:18.884|56=HIQFIX|10=145|8=FIX.4.2|9=65|35=0|34=14|49=AB1013425_PRICE|52=20141015-08:53:48.906|56=HIQFIX|10=144|8=FIX.4.2|9=65|35=0|34=15|49=AB1013425_PRICE|52=20141015-08:54:19.903|56=HIQFIX|10=141|8=FIX.4.2|9=65|35=0|34=16|49=AB1013425_PRICE|52=20141015-08:54:50.086|56=HIQFIX|10=139|8=FIX.4.2|9=65|35=0|34=17|49=AB1013425_PRICE|52=20141015-08:55:20.897|56=HIQFIX|10=148|8=FIX.4.2|9=65|35=0|34=18|49=AB1013425_PRICE|52=20141015-08:55:51.573|56=HIQFIX|10=144|8=FIX.4.2|9=65|35=0|34=19|49=AB1013425_PRICE|52=20141015-08:56:21.892|56=HIQFIX|10=147|8=FIX.4.2|9=65|35=0|34=20|49=AB1013425_PRICE|52=20141015-08:56:52.258|56=HIQFIX|10=139|8=FIX.4.2|9=65|35=0|34=21|49=AB1013425_PRICE|52=20141015-08:57:22.887|56=HIQFIX|10=146|8=FIX.4.2|9=65|35=0|34=22|49=AB1013425_PRICE|52=20141015-08:57:53.884|56=HIQFIX|10=148|8=FIX.4.2|9=65|35=0|34=23|49=AB1013425_PRICE|52=20141015-08:58:24.637|56=HIQFIX|10=144|8=FIX.4.2|9=65|35=0|34=24|49=AB1013425_PRICE|52=20141015-08:58:54.879|56=HIQFIX|10=156|8=FIX.4.2|9=65|35=0|34=25|49=AB1013425_PRICE|52=20141015-08:59:25.743|56=HIQFIX|10=146|8=FIX.4.2|9=65|35=0|34=26|49=AB1013425_PRICE|52=20141015-08:59:55.873|56=HIQFIX|10=154|8=FIX.4.2|9=65|35=0|34=27|49=AB1013425_PRICE|52=20141015-09:00:26.178|56=HIQFIX|10=138|8=FIX.4.2|9=65|35=0|34=28|49=AB1013425_PRICE|52=20141015-09:00:56.183|56=HIQFIX|10=138|8=FIX.4.2|9=65|35=0|34=29|49=AB1013425_PRICE|52=20141015-09:01:26.865|56=HIQFIX|10=144|8=FIX.4.2|9=65|35=0|34=30|49=AB1013425_PRICE|52=20141015-09:01:57.616|56=HIQFIX|10=134|8=FIX.4.2|9=65|35=0|34=31|49=AB1013425_PRICE|52=20141015-09:02:27.618|56=HIQFIX|10=135|8=FIX.4.2|9=65|35=0|34=32|49=AB1013425_PRICE|52=20141015-09:02:57.723|56=HIQFIX|10=136|8=FIX.4.2|9=136|35=V|34=33|49=AB1013425_PRICE|52=20141015-09:03:00.652|56=HIQFIX|262=400783897|263=1|264=1|265=0|267=0|146=1|55=SAP|48=4663789|207=XETR|10=140|8=FIX.4.2|9=65|35=0|34=34|49=AB1013425_PRICE|52=20141015-09:03:30.842|56=HIQFIX|10=132|8=FIX.4.2|9=65|35=0|34=35|49=AB1013425_PRICE|52=20141015-09:04:00.851|56=HIQFIX|10=131|8=FIX.4.2|9=65|35=0|34=36|49=AB1013425_PRICE|52=20141015-09:04:30.901|56=HIQFIX|10=131|8=FIX.4.2|9=65|35=0|34=37|49=AB1013425_PRICE|52=20141015-09:05:01.006|56=HIQFIX|10=127|8=FIX.4.2|9=65|35=0|34=38|49=AB1013425_PRICE|52=20141015-09:05:31.842|56=HIQFIX|10=139|8=FIX.4.2|9=65|35=0|34=39|49=AB1013425_PRICE|52=20141015-09:06:02.541|56=HIQFIX|10=135|8=FIX.4.2|9=65|35=0|34=40|49=AB1013425_PRICE|52=20141015-09:06:32.837|56=HIQFIX|10=138|8=FIX.4.2|9=65|35=0|34=41|49=AB1013425_PRICE|52=20141015-09:07:03.268|56=HIQFIX|10=136|8=FIX.4.2|9=65|35=0|34=42|49=AB1013425_PRICE|52=20141015-09:07:33.635|56=HIQFIX|10=138|8=FIX.4.2|9=65|35=0|34=43|49=AB1013425_PRICE|52=20141015-09:08:03.829|56=HIQFIX|10=142|8=FIX.4.2|9=65|35=0|34=44|49=AB1013425_PRICE|52=20141015-09:08:34.826|56=HIQFIX|10=144|8=FIX.4.2|9=65|35=0|34=45|49=AB1013425_PRICE|52=20141015-09:09:04.997|56=HIQFIX|10=152|8=FIX.4.2|9=65|35=0|34=46|49=AB1013425_PRICE|52=20141015-09:09:35.546|56=HIQFIX|10=147|8=FIX.4.2|9=65|35=0|34=47|49=AB1013425_PRICE|52=20141015-09:10:05.817|56=HIQFIX|10=138|8=FIX.4.2|9=65|35=0|34=48|49=AB1013425_PRICE|52=20141015-09:10:36.535|56=HIQFIX|10=140|8=FIX.4.2|9=65|35=0|34=49|49=AB1013425_PRICE|52=20141015-09:11:06.657|56=HIQFIX|10=144|8=FIX.4.2|9=65|35=0|34=50|49=AB1013425_PRICE|52=20141015-09:11:36.762|56=HIQFIX|10=136|8=FIX.4.2|9=65|35=0|34=51|49=AB1013425_PRICE|52=20141015-09:12:06.807|56=HIQFIX|10=135|8=FIX.4.2|9=65|35=0|34=52|49=AB1013425_PRICE|52=20141015-09:12:37.585|56=HIQFIX|10=143|8=FIX.4.2|9=65|35=0|34=53|49=AB1013425_PRICE|52=20141015-09:13:07.801|56=HIQFIX|10=133|8=FIX.4.2|9=65|35=0|34=54|49=AB1013425_PRICE|52=20141015-09:13:38.798|56=HIQFIX|10=153|8=FIX.4.2|9=65|35=0|34=55|49=AB1013425_PRICE|52=20141015-09:14:08.818|56=HIQFIX|10=145|8=FIX.4.2|9=65|35=0|34=56|49=AB1013425_PRICE|52=20141015-09:14:38.835|56=HIQFIX|10=148|8=FIX.4.2|9=65|35=0|34=57|49=AB1013425_PRICE|52=20141015-09:15:09.070|56=HIQFIX|10=139|8=FIX.4.2|9=137|35=V|34=58|49=AB1013425_PRICE|52=20141015-09:15:22.169|56=HIQFIX|262=-245580399|263=1|264=1|265=0|267=0|146=1|55=SAP|48=4663789|207=XETR|10=202|8=FIX.4.2|9=65|35=0|34=59|49=AB1013425_PRICE|52=20141015-09:15:52.693|56=HIQFIX|10=150|8=FIX.4.2|9=65|35=0|34=60|49=AB1013425_PRICE|52=20141015-09:16:22.784|56=HIQFIX|10=141|8=FIX.4.2|9=65|35=0|34=61|49=AB1013425_PRICE|52=20141015-09:16:52.868|56=HIQFIX|10=148|8=FIX.4.2|9=65|35=0|34=62|49=AB1013425_PRICE|52=20141015-09:17:23.572|56=HIQFIX|10=140|8=FIX.4.2|9=65|35=0|34=63|49=AB1013425_PRICE|52=20141015-09:17:53.608|56=HIQFIX|10=144|8=FIX.4.2|9=65|35=0|34=64|49=AB1013425_PRICE|52=20141015-09:18:23.773|56=HIQFIX|10=146|8=FIX.4.2|9=65|35=0|34=65|49=AB1013425_PRICE|52=20141015-09:18:54.295|56=HIQFIX|10=150|8=FIX.4.2|9=65|35=0|34=66|49=AB1013425_PRICE|52=20141015-09:19:24.768|56=HIQFIX|10=154|8=FIX.4.2|9=65|35=0|34=67|49=AB1013425_PRICE|52=20141015-09:19:55.764|56=HIQFIX|10=155|8=FIX.4.2|9=65|35=0|34=68|49=AB1013425_PRICE|52=20141015-09:20:26.655|56=HIQFIX|10=145|8=FIX.4.2|9=65|35=0|34=69|49=AB1013425_PRICE|52=20141015-09:20:56.657|56=HIQFIX|10=151|8=FIX.4.2|9=65|35=0|34=70|49=AB1013425_PRICE|52=20141015-09:21:26.756|56=HIQFIX|10=141|8=FIX.4.2|9=65|35=0|34=71|49=AB1013425_PRICE|52=20141015-09:21:56.762|56=HIQFIX|10=142|8=FIX.4.2|9=65|35=0|34=72|49=AB1013425_PRICE|52=20141015-09:22:27.583|56=HIQFIX|10=143|8=FIX.4.2|9=65|35=0|34=73|49=AB1013425_PRICE|52=20141015-09:22:57.748|56=HIQFIX|10=150|8=FIX.4.2|9=65|35=0|34=74|49=AB1013425_PRICE|52=20141015-09:23:27.894|56=HIQFIX|10=151|8=FIX.4.2|9=65|35=0|34=75|49=AB1013425_PRICE|52=20141015-09:23:58.510|56=HIQFIX|10=141|8=FIX.4.2|9=65|35=0|34=76|49=AB1013425_PRICE|52=20141015-09:24:28.740|56=HIQFIX|10=145|8=FIX.4.2|9=65|35=0|34=77|49=AB1013425_PRICE|52=20141015-09:24:59.332|56=HIQFIX|10=147|8=FIX.4.2|9=65|35=0|34=78|49=AB1013425_PRICE|52=20141015-09:25:29.458|56=HIQFIX|10=155|8=FIX.4.2|9=65|35=0|34=79|49=AB1013425_PRICE|52=20141015-09:25:59.541|56=HIQFIX|10=152|8=FIX.4.2|9=65|35=0|34=80|49=AB1013425_PRICE|52=20141015-09:26:29.542|56=HIQFIX|10=143|8=FIX.4.2|9=65|35=0|34=81|49=AB1013425_PRICE|52=20141015-09:26:59.727|56=HIQFIX|10=152|8=FIX.4.2|9=65|35=0|34=82|49=AB1013425_PRICE|52=20141015-09:27:30.724|56=HIQFIX|10=140|8=FIX.4.2|9=65|35=0|34=83|49=AB1013425_PRICE|52=20141015-09:28:00.776|56=HIQFIX|10=146|8=FIX.4.2|9=65|35=0|34=84|49=AB1013425_PRICE|52=20141015-09:28:31.495|56=HIQFIX|10=149|8=FIX.4.2|9=65|35=0|34=85|49=AB1013425_PRICE|52=20141015-09:29:01.497|56=HIQFIX|10=150|8=FIX.4.2|9=65|35=0|34=86|49=AB1013425_PRICE|52=20141015-09:29:31.498|56=HIQFIX|10=155|8=FIX.4.2|9=65|35=0|34=87|49=AB1013425_PRICE|52=20141015-09:30:01.710|56=HIQFIX|10=132|8=FIX.4.2|9=65|35=0|34=88|49=AB1013425_PRICE|52=20141015-09:30:32.526|56=HIQFIX|10=142|8=FIX.4.2|9=65|35=0|34=89|49=AB1013425_PRICE|52=20141015-09:31:02.628|56=HIQFIX|10=144|8=FIX.4.2|9=65|35=0|34=90|49=AB1013425_PRICE|52=20141015-09:31:32.630|56=HIQFIX|10=132|8=FIX.4.2|9=65|35=0|34=91|49=AB1013425_PRICE|52=20141015-09:32:02.658|56=HIQFIX|10=141|8=FIX.4.2|9=65|35=0|34=92|49=AB1013425_PRICE|52=20141015-09:32:32.697|56=HIQFIX|10=148|8=FIX.4.2|9=65|35=0|34=93|49=AB1013425_PRICE|52=20141015-09:33:02.767|56=HIQFIX|10=145|8=FIX.4.2|9=65|35=0|34=94|49=AB1013425_PRICE|52=20141015-09:33:33.560|56=HIQFIX|10=141|8=FIX.4.2|9=65|35=0|34=95|49=AB1013425_PRICE|52=20141015-09:34:03.689|56=HIQFIX|10=152|8=FIX.4.2|9=65|35=0|34=96|49=AB1013425_PRICE|52=20141015-09:34:33.947|56=HIQFIX|10=153|8=FIX.4.2|9=65|35=0|34=97|49=AB1013425_PRICE|52=20141015-09:35:04.180|56=HIQFIX|10=142|8=FIX.4.2|9=65|35=0|34=98|49=AB1013425_PRICE|52=20141015-09:35:34.182|56=HIQFIX|10=148|8=FIX.4.2|9=65|35=0|34=99|49=AB1013425_PRICE|52=20141015-09:36:04.678|56=HIQFIX|10=157|8=FIX.4.2|9=66|35=0|34=100|49=AB1013425_PRICE|52=20141015-09:36:35.676|56=HIQFIX|10=191|8=FIX.4.2|9=66|35=0|34=101|49=AB1013425_PRICE|52=20141015-09:37:05.722|56=HIQFIX|10=182|8=FIX.4.2|9=66|35=0|34=102|49=AB1013425_PRICE|52=20141015-09:37:35.723|56=HIQFIX|10=187|8=FIX.4.2|9=66|35=0|34=103|49=AB1013425_PRICE|52=20141015-09:38:06.544|56=HIQFIX|10=188|8=FIX.4.2|9=66|35=0|34=104|49=AB1013425_PRICE|52=20141015-09:38:36.546|56=HIQFIX|10=194|8=FIX.4.2|9=66|35=0|34=105|49=AB1013425_PRICE|52=20141015-09:39:06.662|56=HIQFIX|10=192|8=FIX.4.2|9=66|35=0|34=106|49=AB1013425_PRICE|52=20141015-09:39:37.471|56=HIQFIX|10=195|8=FIX.4.2|9=66|35=0|34=107|49=AB1013425_PRICE|52=20141015-09:40:07.491|56=HIQFIX|10=187|8=FIX.4.2|9=66|35=0|34=108|49=AB1013425_PRICE|52=20141015-09:40:37.653|56=HIQFIX|10=191|8=FIX.4.2|9=66|35=0|34=109|49=AB1013425_PRICE|52=20141015-09:41:08.651|56=HIQFIX|10=189|8=FIX.4.2|9=66|35=0|34=110|49=AB1013425_PRICE|52=20141015-09:41:39.629|56=HIQFIX|10=190|8=FIX.4.2|9=66|35=0|34=111|49=AB1013425_PRICE|52=20141015-09:42:09.630|56=HIQFIX|10=181|8=FIX.4.2|9=66|35=0|34=112|49=AB1013425_PRICE|52=20141015-09:42:39.642|56=HIQFIX|10=188|8=FIX.4.2|9=66|35=0|34=113|49=AB1013425_PRICE|52=20141015-09:43:10.640|56=HIQFIX|10=177|8=FIX.4.2|9=66|35=0|34=114|49=AB1013425_PRICE|52=20141015-09:43:40.656|56=HIQFIX|10=188|8=FIX.4.2|9=66|35=0|34=115|49=AB1013425_PRICE|52=20141015-09:44:10.988|56=HIQFIX|10=195|8=FIX.4.2|9=66|35=0|34=116|49=AB1013425_PRICE|52=20141015-09:44:41.632|56=HIQFIX|10=186|8=FIX.4.2|9=66|35=0|34=117|49=AB1013425_PRICE|52=20141015-09:45:12.630|56=HIQFIX|10=184|8=FIX.4.2|9=66|35=0|34=118|49=AB1013425_PRICE|52=20141015-09:45:42.816|56=HIQFIX|10=194|8=FIX.4.2|9=66|35=0|34=119|49=AB1013425_PRICE|52=20141015-09:46:13.096|56=HIQFIX|10=194|8=FIX.4.2|9=66|35=0|34=120|49=AB1013425_PRICE|52=20141015-09:46:43.229|56=HIQFIX|10=187|8=FIX.4.2|9=66|35=0|34=121|49=AB1013425_PRICE|52=20141015-09:47:13.538|56=HIQFIX|10=189|8=FIX.4.2|9=66|35=0|34=122|49=AB1013425_PRICE|52=20141015-09:47:43.616|56=HIQFIX|10=190|8=FIX.4.2|9=66|35=0|34=123|49=AB1013425_PRICE|52=20141015-09:48:14.612|56=HIQFIX|10=186|8=FIX.4.2|9=66|35=0|34=124|49=AB1013425_PRICE|52=20141015-09:48:45.381|56=HIQFIX|10=194|8=FIX.4.2|9=66|35=0|34=125|49=AB1013425_PRICE|52=20141015-09:49:15.607|56=HIQFIX|10=194|8=FIX.4.2|9=66|35=0|34=126|49=AB1013425_PRICE|52=20141015-09:49:45.696|56=HIQFIX|10=206|8=FIX.4.2|9=66|35=0|34=127|49=AB1013425_PRICE|52=20141015-09:50:16.415|56=HIQFIX|10=186|8=FIX.4.2|9=66|35=0|34=128|49=AB1013425_PRICE|52=20141015-09:50:46.519|56=HIQFIX|10=195|8=FIX.4.2|9=66|35=0|34=129|49=AB1013425_PRICE|52=20141015-09:51:16.597|56=HIQFIX|10=200|8=FIX.4.2|9=66|35=0|34=130|49=AB1013425_PRICE|52=20141015-09:51:46.624|56=HIQFIX|10=186|8=FIX.4.2|9=66|35=0|34=131|49=AB1013425_PRICE|52=20141015-09:52:17.429|56=HIQFIX|10=189|8=FIX.4.2|9=66|35=0|34=132|49=AB1013425_PRICE|52=20141015-09:52:47.588|56=HIQFIX|10=199|8=FIX.4.2|9=66|35=0|34=133|49=AB1013425_PRICE|52=20141015-09:53:17.654|56=HIQFIX|10=192|8=FIX.4.2|9=66|35=0|34=134|49=AB1013425_PRICE|52=20141015-09:53:48.583|56=HIQFIX|10=198|8=FIX.4.2|9=66|35=0|34=135|49=AB1013425_PRICE|52=20141015-09:54:18.681|56=HIQFIX|10=196|8=FIX.4.2|9=66|35=0|34=136|49=AB1013425_PRICE|52=20141015-09:54:49.577|56=HIQFIX|10=205|8=FIX.4.2|9=66|35=0|34=137|49=AB1013425_PRICE|52=20141015-09:55:19.930|56=HIQFIX|10=197|8=FIX.4.2|9=66|35=0|34=138|49=AB1013425_PRICE|52=20141015-09:55:50.572|56=HIQFIX|10=195|8=FIX.4.2|9=138|35=V|34=139|49=AB1013425_PRICE|52=20141015-09:55:59.740|56=HIQFIX|262=-563298087|263=1|264=1|265=0|267=0|146=1|55=SAP|48=4663789|207=XETR|10=007|8=FIX.4.2|9=66|35=0|34=140|49=AB1013425_PRICE|52=20141015-09:56:30.569|56=HIQFIX|10=193|8=FIX.4.2|9=66|35=0|34=141|49=AB1013425_PRICE|52=20141015-09:57:00.772|56=HIQFIX|10=188|8=FIX.4.2|9=66|35=0|34=142|49=AB1013425_PRICE|52=20141015-09:57:31.490|56=HIQFIX|10=190|8=FIX.4.2|9=66|35=0|34=143|49=AB1013425_PRICE|52=20141015-09:58:01.492|56=HIQFIX|10=191|8=FIX.4.2|9=66|35=0|34=144|49=AB1013425_PRICE|52=20141015-09:58:31.557|56=HIQFIX|10=197|8=FIX.4.2|9=66|35=0|34=145|49=AB1013425_PRICE|52=20141015-09:59:02.555|56=HIQFIX|10=195|8=FIX.4.2|9=66|35=0|34=146|49=AB1013425_PRICE|52=20141015-09:59:33.551|56=HIQFIX|10=196|8=FIX.4.2|9=66|35=0|34=147|49=AB1013425_PRICE|52=20141015-10:00:04.134|56=HIQFIX|10=170|8=FIX.4.2|9=66|35=0|34=148|49=AB1013425_PRICE|52=20141015-10:00:34.546|56=HIQFIX|10=181|8=FIX.4.2|9=66|35=0|34=149|49=AB1013425_PRICE|52=20141015-10:01:05.543|56=HIQFIX|10=178|8=FIX.4.2|9=66|35=0|34=150|49=AB1013425_PRICE|52=20141015-10:01:36.418|56=HIQFIX|10=175|8=FIX.4.2|9=66|35=0|34=151|49=AB1013425_PRICE|52=20141015-10:02:06.537|56=HIQFIX|10=176|8=FIX.4.2|9=66|35=0|34=152|49=AB1013425_PRICE|52=20141015-10:02:37.445|56=HIQFIX|10=179|8=FIX.4.2|9=66|35=0|34=153|49=AB1013425_PRICE|52=20141015-10:03:07.532|56=HIQFIX|10=175|8=FIX.4.2|9=66|35=0|34=154|49=AB1013425_PRICE|52=20141015-10:03:38.529|56=HIQFIX|10=186|8=FIX.4.2|9=66|35=0|34=155|49=AB1013425_PRICE|52=20141015-10:04:09.396|56=HIQFIX|10=188|8=FIX.4.2|9=66|35=0|34=156|49=AB1013425_PRICE|52=20141015-10:04:39.499|56=HIQFIX|10=196|8=FIX.4.2|9=66|35=0|34=157|49=AB1013425_PRICE|52=20141015-10:05:09.521|56=HIQFIX|10=181|8=FIX.4.2|9=66|35=0|34=158|49=AB1013425_PRICE|52=20141015-10:05:40.332|56=HIQFIX|10=177|8=FIX.4.2|9=66|35=0|34=159|49=AB1013425_PRICE|52=20141015-10:06:10.427|56=HIQFIX|10=181|8=FIX.4.2|9=66|35=0|34=160|49=AB1013425_PRICE|52=20141015-10:06:40.431|56=HIQFIX|10=171|8=FIX.4.2|9=66|35=0|34=161|49=AB1013425_PRICE|52=20141015-10:07:10.510|56=HIQFIX|10=168|8=FIX.4.2|9=66|35=0|34=162|49=AB1013425_PRICE|52=20141015-10:07:40.738|56=HIQFIX|10=184|8=FIX.4.2|9=66|35=0|34=163|49=AB1013425_PRICE|52=20141015-10:08:11.504|56=HIQFIX|10=175|8=FIX.4.2|9=66|35=0|34=164|49=AB1013425_PRICE|52=20141015-10:08:41.663|56=HIQFIX|10=185|8=FIX.4.2|9=66|35=0|34=165|49=AB1013425_PRICE|52=20141015-10:09:12.383|56=HIQFIX|10=184|8=FIX.4.2|9=66|35=0|34=166|49=AB1013425_PRICE|52=20141015-10:09:42.485|56=HIQFIX|10=191|8=FIX.4.2|9=66|35=0|34=167|49=AB1013425_PRICE|52=20141015-10:10:12.494|56=HIQFIX|10=181|8=FIX.4.2|9=66|35=0|34=168|49=AB1013425_PRICE|52=20141015-10:10:43.491|56=HIQFIX|10=183|8=FIX.4.2|9=66|35=0|34=169|49=AB1013425_PRICE|52=20141015-10:11:13.925|56=HIQFIX|10=184|8=FIX.4.2|9=66|35=0|34=170|49=AB1013425_PRICE|52=20141015-10:11:44.335|56=HIQFIX|10=175|8=FIX.4.2|9=66|35=0|34=171|49=AB1013425_PRICE|52=20141015-10:12:14.482|56=HIQFIX|10=177|8=FIX.4.2|9=66|35=0|34=172|49=AB1013425_PRICE|52=20141015-10:12:45.480|56=HIQFIX|10=180|8=FIX.4.2|9=66|35=0|34=173|49=AB1013425_PRICE|52=20141015-10:13:15.672|56=HIQFIX|10=182|8=FIX.4.2|9=66|35=0|34=174|49=AB1013425_PRICE|52=20141015-10:13:46.210|56=HIQFIX|10=175|8=FIX.4.2|9=66|35=0|34=175|49=AB1013425_PRICE|52=20141015-10:14:16.472|56=HIQFIX|10=184|8=FIX.4.2|9=66|35=0|34=176|49=AB1013425_PRICE|52=20141015-10:14:47.417|56=HIQFIX|10=188|8=FIX.4.2|9=66|35=0|34=177|49=AB1013425_PRICE|52=20141015-10:15:17.466|56=HIQFIX|10=191|8=FIX.4.2|9=66|35=0|34=178|49=AB1013425_PRICE|52=20141015-10:15:47.521|56=HIQFIX|10=187|8=FIX.4.2|9=66|35=0|34=179|49=AB1013425_PRICE|52=20141015-10:16:17.832|56=HIQFIX|10=191|8=FIX.4.2|9=66|35=0|34=180|49=AB1013425_PRICE|52=20141015-10:16:48.458|56=HIQFIX|10=191|8=FIX.4.2|9=66|35=0|34=181|49=AB1013425_PRICE|52=20141015-10:17:18.859|56=HIQFIX|10=195|8=FIX.4.2|9=66|35=0|34=182|49=AB1013425_PRICE|52=20141015-10:17:49.434|56=HIQFIX|10=189|8=FIX.4.2|9=66|35=0|34=183|49=AB1013425_PRICE|52=20141015-10:18:19.450|56=HIQFIX|10=186|8=FIX.4.2|9=66|35=0|34=184|49=AB1013425_PRICE|52=20141015-10:18:49.716|56=HIQFIX|10=195|8=FIX.4.2|9=66|35=0|34=185|49=AB1013425_PRICE|52=20141015-10:19:20.444|56=HIQFIX|10=184|8=FIX.4.2|9=66|35=0|34=186|49=AB1013425_PRICE|52=20141015-10:19:51.329|56=HIQFIX|10=191|8=FIX.4.2|9=66|35=0|34=187|49=AB1013425_PRICE|52=20141015-10:20:21.438|56=HIQFIX|10=182|8=FIX.4.2|9=66|35=0|34=188|49=AB1013425_PRICE|52=20141015-10:20:52.074|56=HIQFIX|10=183|8=FIX.4.2|9=66|35=0|34=189|49=AB1013425_PRICE|52=20141015-10:21:22.433|56=HIQFIX|10=181|8=FIX.4.2|9=66|35=0|34=190|49=AB1013425_PRICE|52=20141015-10:21:53.174|56=HIQFIX|10=179|8=FIX.4.2|9=66|35=0|34=191|49=AB1013425_PRICE|52=20141015-10:22:23.278|56=HIQFIX|10=183|8=FIX.4.2|9=66|35=0|34=192|49=AB1013425_PRICE|52=20141015-10:22:53.424|56=HIQFIX|10=180|8=FIX.4.2|9=66|35=0|34=193|49=AB1013425_PRICE|52=20141015-10:23:24.175|56=HIQFIX|10=183|8=FIX.4.2|9=139|35=V|34=194|49=AB1013425_PRICE|52=20141015-10:23:29.864|56=HIQFIX|262=-1196342172|263=1|264=1|265=0|267=0|146=1|55=GAZ|48=4663793|207=XETR|10=029|8=FIX.4.2|9=138|35=V|34=195|49=AB1013425_PRICE|52=20141015-10:23:29.875|56=HIQFIX|262=1039449444|263=1|264=1|265=0|267=0|146=1|55=SAP|48=4663789|207=XETR|10=255|8=FIX.4.2|9=139|35=V|34=196|49=AB1013425_PRICE|52=20141015-10:23:29.885|56=HIQFIX|262=-1754474992|263=1|264=1|265=0|267=0|146=1|55=SIE|48=4663794|207=XETR|10=050|8=FIX.4.2|9=66|35=0|34=197|49=AB1013425_PRICE|52=20141015-10:24:00.349|56=HIQFIX|10=185|8=FIX.4.2|9=66|35=0|34=198|49=AB1013425_PRICE|52=20141015-10:24:30.415|56=HIQFIX|10=183|8=FIX.4.2|9=66|35=0|34=199|49=AB1013425_PRICE|52=20141015-10:25:00.659|56=HIQFIX|10=192|8=FIX.4.2|9=139|35=V|34=200|49=AB1013425_PRICE|52=20141015-10:25:24.307|56=HIQFIX|262=-1203134332|263=1|264=1|265=0|267=0|146=1|55=GAZ|48=4663793|207=XETR|10=248|8=FIX.4.2|9=66|35=0|34=201|49=AB1013425_PRICE|52=20141015-10:25:54.409|56=HIQFIX|10=178|8=FIX.4.2|9=139|35=V|34=202|49=AB1013425_PRICE|52=20141015-10:26:12.067|56=HIQFIX|262=-1939848527|263=1|264=1|265=0|267=0|146=1|55=GAZ|48=4663793|207=XETR|10=029|8=FIX.4.2|9=139|35=V|34=203|49=AB1013425_PRICE|52=20141015-10:26:12.073|56=HIQFIX|262=-1507322480|263=1|264=1|265=0|267=0|146=1|55=SAP|48=4663789|207=XETR|10=010|8=FIX.4.2|9=139|35=V|34=204|49=AB1013425_PRICE|52=20141015-10:26:12.078|56=HIQFIX|262=-1128866479|263=1|264=1|265=0|267=0|146=1|55=SIE|48=4663794|207=XETR|10=029|8=FIX.4.2|9=66|35=0|34=205|49=AB1013425_PRICE|52=20141015-10:26:42.404|56=HIQFIX|10=175|8=FIX.4.2|9=138|35=V|34=206|49=AB1013425_PRICE|52=20141015-10:27:09.286|56=HIQFIX|262=-633020160|263=1|264=1|265=0|267=0|146=1|55=GAZ|48=4663793|207=XETR|10=215|8=FIX.4.2|9=138|35=V|34=207|49=AB1013425_PRICE|52=20141015-10:27:09.294|56=HIQFIX|262=-356413295|263=1|264=1|265=0|267=0|146=1|55=SAP|48=4663789|207=XETR|10=239|8=FIX.4.2|9=137|35=V|34=208|49=AB1013425_PRICE|52=20141015-10:27:09.296|56=HIQFIX|262=193384729|263=1|264=1|265=0|267=0|146=1|55=SIE|48=4663794|207=XETR|10=197|8=FIX.4.2|9=66|35=0|34=209|49=AB1013425_PRICE|52=20141015-10:27:39.399|56=HIQFIX|10=199|8=FIX.4.2|9=66|35=0|34=210|49=AB1013425_PRICE|52=20141015-10:28:09.758|56=HIQFIX|10=188|8=FIX.4.2|9=66|35=0|34=211|49=AB1013425_PRICE|52=20141015-10:28:39.833|56=HIQFIX|10=186|8=FIX.4.2|9=66|35=0|34=212|49=AB1013425_PRICE|52=20141015-10:29:10.022|56=HIQFIX|10=167|8=FIX.4.2|9=139|35=V|34=213|49=AB1013425_PRICE|52=20141015-10:29:14.880|56=HIQFIX|262=-1475613424|263=1|264=1|265=0|267=0|146=1|55=GAZ|48=4663793|207=XETR|10=020|8=FIX.4.2|9=138|35=V|34=214|49=AB1013425_PRICE|52=20141015-10:29:14.902|56=HIQFIX|262=1640727481|263=1|264=1|265=0|267=0|146=1|55=SAP|48=4663789|207=XETR|10=236|8=FIX.4.2|9=137|35=V|34=215|49=AB1013425_PRICE|52=20141015-10:29:14.920|56=HIQFIX|262=910477540|263=1|264=1|265=0|267=0|146=1|55=SIE|48=4663794|207=XETR|10=178|8=FIX.4.2|9=66|35=0|34=216|49=AB1013425_PRICE|52=20141015-10:29:44.937|56=HIQFIX|10=193|8=FIX.4.2|9=66|35=0|34=217|49=AB1013425_PRICE|52=20141015-10:30:15.384|56=HIQFIX|10=180|8=FIX.4.2|9=66|35=0|34=218|49=AB1013425_PRICE|52=20141015-10:30:45.457|56=HIQFIX|10=185|8=FIX.4.2|9=66|35=0|34=219|49=AB1013425_PRICE|52=20141015-10:31:15.628|56=HIQFIX|10=184|8=FIX.4.2|9=138|35=V|34=220|49=AB1013425_PRICE|52=20141015-10:31:19.357|56=HIQFIX|262=-719728527|263=1|264=1|265=0|267=0|146=1|55=GAZ|48=4663793|207=XETR|10=233|8=FIX.4.2|9=139|35=V|34=221|49=AB1013425_PRICE|52=20141015-10:31:19.365|56=HIQFIX|262=-2066530460|263=1|264=1|265=0|267=0|146=1|55=SAP|48=4663789|207=XETR|10=017|8=FIX.4.2|9=139|35=V|34=222|49=AB1013425_PRICE|52=20141015-10:31:19.369|56=HIQFIX|262=-2119907324|263=1|264=1|265=0|267=0|146=1|55=SIE|48=4663794|207=XETR|10=021|8=FIX.4.2|9=66|35=0|34=223|49=AB1013425_PRICE|52=20141015-10:31:49.376|56=HIQFIX|10=186|8=FIX.4.2|9=66|35=0|34=224|49=AB1013425_PRICE|52=20141015-10:32:19.933|56=HIQFIX|10=184|8=FIX.4.2|9=66|35=0|34=225|49=AB1013425_PRICE|52=20141015-10:32:50.344|56=HIQFIX|10=176|8=FIX.4.2|9=66|35=0|34=226|49=AB1013425_PRICE|52=20141015-10:33:20.367|56=HIQFIX|10=180|8=FIX.4.2|9=66|35=0|34=227|49=AB1013425_PRICE|52=20141015-10:33:50.548|56=HIQFIX|10=185|8=FIX.4.2|9=66|35=0|34=228|49=AB1013425_PRICE|52=20141015-10:34:21.167|56=HIQFIX|10=182|8=FIX.4.2|9=66|35=0|34=229|49=AB1013425_PRICE|52=20141015-10:34:51.271|56=HIQFIX|10=182|8=FIX.4.2|9=66|35=0|34=230|49=AB1013425_PRICE|52=20141015-10:35:21.356|56=HIQFIX|10=176|8=FIX.4.2|9=66|35=0|34=231|49=AB1013425_PRICE|52=20141015-10:35:51.490|56=HIQFIX|10=179|8=FIX.4.2|9=66|35=0|34=232|49=AB1013425_PRICE|52=20141015-10:36:22.096|56=HIQFIX|10=181|8=FIX.4.2|9=66|35=0|34=233|49=AB1013425_PRICE|52=20141015-10:36:52.348|56=HIQFIX|10=185|8=FIX.4.2|9=66|35=0|34=234|49=AB1013425_PRICE|52=20141015-10:37:22.369|56=HIQFIX|10=187|8=FIX.4.2|9=66|35=0|34=235|49=AB1013425_PRICE|52=20141015-10:37:53.343|56=HIQFIX|10=184|8=FIX.4.2|9=66|35=0|34=236|49=AB1013425_PRICE|52=20141015-10:38:23.638|56=HIQFIX|10=190|8=FIX.4.2|9=66|35=0|34=237|49=AB1013425_PRICE|52=20141015-10:38:54.337|56=HIQFIX|10=191|8=FIX.4.2|9=66|35=0|34=238|49=AB1013425_PRICE|52=20141015-10:39:25.334|56=HIQFIX|10=188|8=FIX.4.2|9=66|35=0|34=239|49=AB1013425_PRICE|52=20141015-10:39:55.361|56=HIQFIX|10=192|8=FIX.4.2|9=66|35=0|34=240|49=AB1013425_PRICE|52=20141015-10:40:26.000|56=HIQFIX|10=164|8=FIX.4.2|9=66|35=0|34=241|49=AB1013425_PRICE|52=20141015-10:40:56.193|56=HIQFIX|10=181|8=FIX.4.2|9=66|35=0|34=242|49=AB1013425_PRICE|52=20141015-10:41:26.208|56=HIQFIX|10=177|8=FIX.4.2|9=66|35=0|34=243|49=AB1013425_PRICE|52=20141015-10:41:56.312|56=HIQFIX|10=177|8=FIX.4.2|9=66|35=0|34=244|49=AB1013425_PRICE|52=20141015-10:42:26.319|56=HIQFIX|10=183|8=FIX.4.2|9=137|35=V|34=245|49=AB1013425_PRICE|52=20141015-10:42:35.238|56=HIQFIX|262=740218436|263=1|264=1|265=0|267=0|146=1|55=GAZ|48=4663793|207=XETR|10=179|8=FIX.4.2|9=139|35=V|34=246|49=AB1013425_PRICE|52=20141015-10:42:35.271|56=HIQFIX|262=-1177569788|263=1|264=1|265=0|267=0|146=1|55=SAP|48=4663789|207=XETR|10=047|8=FIX.4.2|9=138|35=V|34=247|49=AB1013425_PRICE|52=20141015-10:42:35.277|56=HIQFIX|262=1982830433|263=1|264=1|265=0|267=0|146=1|55=SIE|48=4663794|207=XETR|10=239|8=FIX.4.2|9=66|35=0|34=248|49=AB1013425_PRICE|52=20141015-10:43:05.315|56=HIQFIX|10=181|8=FIX.4.2|9=66|35=0|34=249|49=AB1013425_PRICE|52=20141015-10:43:35.421|56=HIQFIX|10=183|8=FIX.4.2|9=66|35=0|34=250|49=AB1013425_PRICE|52=20141015-10:44:05.739|56=HIQFIX|10=185|8=FIX.4.2|9=66|35=0|34=251|49=AB1013425_PRICE|52=20141015-10:44:36.307|56=HIQFIX|10=181|8=FIX.4.2|9=66|35=0|34=252|49=AB1013425_PRICE|52=20141015-10:45:07.303|56=HIQFIX|10=177|8=FIX.4.2|9=137|35=V|34=253|49=AB1013425_PRICE|52=20141015-10:45:16.016|56=HIQFIX|262=846208656|263=1|264=1|265=0|267=0|146=1|55=GAZ|48=4663793|207=XETR|10=184|8=FIX.4.2|9=138|35=V|34=254|49=AB1013425_PRICE|52=20141015-10:45:16.037|56=HIQFIX|262=1696616825|263=1|264=1|265=0|267=0|146=1|55=SAP|48=4663789|207=XETR|10=249|8=FIX.4.2|9=138|35=V|34=255|49=AB1013425_PRICE|52=20141015-10:45:16.038|56=HIQFIX|262=1150866169|263=1|264=1|265=0|267=0|146=1|55=SIE|48=4663794|207=XETR|10=237|8=FIX.4.2|9=66|35=0|34=256|49=AB1013425_PRICE|52=20141015-10:45:46.300|56=HIQFIX|10=181|8=FIX.4.2|9=66|35=0|34=257|49=AB1013425_PRICE|52=20141015-10:46:16.495|56=HIQFIX|10=195|8=FIX.4.2|9=66|35=0|34=258|49=AB1013425_PRICE|52=20141015-10:46:47.290|56=HIQFIX|10=193|8=FIX.4.2|9=66|35=0|34=259|49=AB1013425_PRICE|52=20141015-10:47:17.292|56=HIQFIX|10=194|8=FIX.4.2|9=66|35=0|34=260|49=AB1013425_PRICE|52=20141015-10:47:47.367|56=HIQFIX|10=192|8=FIX.4.2|9=66|35=0|34=261|49=AB1013425_PRICE|52=20141015-10:48:17.937|56=HIQFIX|10=194|8=FIX.4.2|9=66|35=0|34=262|49=AB1013425_PRICE|52=20141015-10:48:48.283|56=HIQFIX|10=193|8=FIX.4.2|9=66|35=0|34=263|49=AB1013425_PRICE|52=20141015-10:49:18.759|56=HIQFIX|10=200|8=FIX.4.2|9=66|35=0|34=264|49=AB1013425_PRICE|52=20141015-10:49:48.761|56=HIQFIX|10=197|8=FIX.4.2|9=66|35=0|34=265|49=AB1013425_PRICE|52=20141015-10:50:19.275|56=HIQFIX|10=188|8=FIX.4.2|9=66|35=0|34=266|49=AB1013425_PRICE|52=20141015-10:50:49.377|56=HIQFIX|10=195|8=FIX.4.2|9=66|35=0|34=267|49=AB1013425_PRICE|52=20141015-10:51:19.483|56=HIQFIX|10=192|8=FIX.4.2|9=66|35=0|34=268|49=AB1013425_PRICE|52=20141015-10:51:50.099|56=HIQFIX|10=191|8=FIX.4.2|9=66|35=0|34=269|49=AB1013425_PRICE|52=20141015-10:52:20.101|56=HIQFIX|10=174|