8=FIX.4.2|9=82|35=A|34=1|49=AB1013425_ORDER|52=20141015-08:47:40.176|56=HIQFIX|98=0|108=30|141=Y|10=181|8=FIX.4.2|9=64|35=0|34=2|49=AB1013425_ORDER|52=20141015-08:48:11.088|56=HIQFIX|10=096|8=FIX.4.2|9=64|35=0|34=3|49=AB1013425_ORDER|52=20141015-08:48:42.085|56=HIQFIX|10=098|8=FIX.4.2|9=64|35=0|34=4|49=AB1013425_ORDER|52=20141015-08:49:13.083|56=HIQFIX|10=096|8=FIX.4.2|9=64|35=0|34=5|49=AB1013425_ORDER|52=20141015-08:49:44.080|56=HIQFIX|10=098|8=FIX.4.2|9=64|35=0|34=6|49=AB1013425_ORDER|52=20141015-08:50:15.077|56=HIQFIX|10=095|8=FIX.4.2|9=64|35=0|34=7|49=AB1013425_ORDER|52=20141015-08:50:46.074|56=HIQFIX|10=097|8=FIX.4.2|9=64|35=0|34=8|49=AB1013425_ORDER|52=20141015-08:51:17.071|56=HIQFIX|10=094|8=FIX.4.2|9=64|35=0|34=9|49=AB1013425_ORDER|52=20141015-08:51:48.068|56=HIQFIX|10=105|8=FIX.4.2|9=65|35=0|34=10|49=AB1013425_ORDER|52=20141015-08:52:19.065|56=HIQFIX|10=142|8=FIX.4.2|9=65|35=0|34=11|49=AB1013425_ORDER|52=20141015-08:52:50.062|56=HIQFIX|10=135|8=FIX.4.2|9=65|35=0|34=12|49=AB1013425_ORDER|52=20141015-08:53:21.060|56=HIQFIX|10=133|8=FIX.4.2|9=65|35=0|34=13|49=AB1013425_ORDER|52=20141015-08:53:52.057|56=HIQFIX|10=144|8=FIX.4.2|9=65|35=0|34=14|49=AB1013425_ORDER|52=20141015-08:54:23.054|56=HIQFIX|10=141|8=FIX.4.2|9=65|35=0|34=15|49=AB1013425_ORDER|52=20141015-08:54:54.052|56=HIQFIX|10=144|8=FIX.4.2|9=65|35=0|34=16|49=AB1013425_ORDER|52=20141015-08:55:25.048|56=HIQFIX|10=149|8=FIX.4.2|9=65|35=0|34=17|49=AB1013425_ORDER|52=20141015-08:55:56.047|56=HIQFIX|10=153|8=FIX.4.2|9=65|35=0|34=18|49=AB1013425_ORDER|52=20141015-08:56:27.044|56=HIQFIX|10=150|8=FIX.4.2|9=65|35=0|34=19|49=AB1013425_ORDER|52=20141015-08:56:58.040|56=HIQFIX|10=151|8=FIX.4.2|9=65|35=0|34=20|49=AB1013425_ORDER|52=20141015-08:57:29.038|56=HIQFIX|10=149|8=FIX.4.2|9=65|35=0|34=21|49=AB1013425_ORDER|52=20141015-08:58:00.035|56=HIQFIX|10=137|8=FIX.4.2|9=65|35=0|34=22|49=AB1013425_ORDER|52=20141015-08:58:31.032|56=HIQFIX|10=139|8=FIX.4.2|9=65|35=0|34=23|49=AB1013425_ORDER|52=20141015-08:59:02.029|56=HIQFIX|10=145|8=FIX.4.2|9=65|35=0|34=24|49=AB1013425_ORDER|52=20141015-08:59:32.029|56=HIQFIX|10=149|8=FIX.4.2|9=65|35=0|34=25|49=AB1013425_ORDER|52=20141015-09:00:03.024|56=HIQFIX|10=130|8=FIX.4.2|9=65|35=0|34=26|49=AB1013425_ORDER|52=20141015-09:00:34.021|56=HIQFIX|10=132|8=FIX.4.2|9=65|35=0|34=27|49=AB1013425_ORDER|52=20141015-09:01:05.018|56=HIQFIX|10=138|8=FIX.4.2|9=65|35=0|34=28|49=AB1013425_ORDER|52=20141015-09:01:36.015|56=HIQFIX|10=140|8=FIX.4.2|9=65|35=0|34=29|49=AB1013425_ORDER|52=20141015-09:02:07.013|56=HIQFIX|10=138|8=FIX.4.2|9=65|35=0|34=30|49=AB1013425_ORDER|52=20141015-09:02:38.010|56=HIQFIX|10=131|8=FIX.4.2|9=65|35=0|34=31|49=AB1013425_ORDER|52=20141015-09:03:09.007|56=HIQFIX|10=137|8=FIX.4.2|9=65|35=0|34=32|49=AB1013425_ORDER|52=20141015-09:03:39.603|56=HIQFIX|10=143|8=FIX.4.2|9=65|35=0|34=33|49=AB1013425_ORDER|52=20141015-09:04:10.002|56=HIQFIX|10=127|8=FIX.4.2|9=65|35=0|34=34|49=AB1013425_ORDER|52=20141015-09:04:40.998|56=HIQFIX|10=155|8=FIX.4.2|9=65|35=0|34=35|49=AB1013425_ORDER|52=20141015-09:05:11.995|56=HIQFIX|10=152|8=FIX.4.2|9=65|35=0|34=36|49=AB1013425_ORDER|52=20141015-09:05:42.993|56=HIQFIX|10=155|8=FIX.4.2|9=65|35=0|34=37|49=AB1013425_ORDER|52=20141015-09:06:13.990|56=HIQFIX|10=152|8=FIX.4.2|9=65|35=0|34=38|49=AB1013425_ORDER|52=20141015-09:06:44.988|56=HIQFIX|10=164|8=FIX.4.2|9=65|35=0|34=39|49=AB1013425_ORDER|52=20141015-09:07:15.985|56=HIQFIX|10=161|8=FIX.4.2|9=65|35=0|34=40|49=AB1013425_ORDER|52=20141015-09:07:46.982|56=HIQFIX|10=154|8=FIX.4.2|9=65|35=0|34=41|49=AB1013425_ORDER|52=20141015-09:08:17.979|56=HIQFIX|10=160|8=FIX.4.2|9=65|35=0|34=42|49=AB1013425_ORDER|52=20141015-09:08:48.976|56=HIQFIX|10=162|8=FIX.4.2|9=65|35=0|34=43|49=AB1013425_ORDER|52=20141015-09:09:19.973|56=HIQFIX|10=159|8=FIX.4.2|9=65|35=0|34=44|49=AB1013425_ORDER|52=20141015-09:09:50.971|56=HIQFIX|10=153|8=FIX.4.2|9=65|35=0|34=45|49=AB1013425_ORDER|52=20141015-09:10:21.968|56=HIQFIX|10=150|8=FIX.4.2|9=65|35=0|34=46|49=AB1013425_ORDER|52=20141015-09:10:52.965|56=HIQFIX|10=152|8=FIX.4.2|9=65|35=0|34=47|49=AB1013425_ORDER|52=20141015-09:11:23.962|56=HIQFIX|10=149|8=FIX.4.2|9=65|35=0|34=48|49=AB1013425_ORDER|52=20141015-09:11:54.959|56=HIQFIX|10=160|8=FIX.4.2|9=65|35=0|34=49|49=AB1013425_ORDER|52=20141015-09:12:25.956|56=HIQFIX|10=157|8=FIX.4.2|9=65|35=0|34=50|49=AB1013425_ORDER|52=20141015-09:12:56.953|56=HIQFIX|10=150|8=FIX.4.2|9=65|35=0|34=51|49=AB1013425_ORDER|52=20141015-09:13:27.951|56=HIQFIX|10=148|8=FIX.4.2|9=65|35=0|34=52|49=AB1013425_ORDER|52=20141015-09:13:58.948|56=HIQFIX|10=159|8=FIX.4.2|9=65|35=0|34=53|49=AB1013425_ORDER|52=20141015-09:14:29.945|56=HIQFIX|10=156|8=FIX.4.2|9=65|35=0|34=54|49=AB1013425_ORDER|52=20141015-09:15:00.944|56=HIQFIX|10=146|8=FIX.4.2|9=65|35=0|34=55|49=AB1013425_ORDER|52=20141015-09:15:31.940|56=HIQFIX|10=147|8=FIX.4.2|9=65|35=0|34=56|49=AB1013425_ORDER|52=20141015-09:16:02.937|56=HIQFIX|10=153|8=FIX.4.2|9=65|35=0|34=57|49=AB1013425_ORDER|52=20141015-09:16:33.939|56=HIQFIX|10=160|8=FIX.4.2|9=65|35=0|34=58|49=AB1013425_ORDER|52=20141015-09:17:04.932|56=HIQFIX|10=153|8=FIX.4.2|9=65|35=0|34=59|49=AB1013425_ORDER|52=20141015-09:17:35.929|56=HIQFIX|10=164|8=FIX.4.2|9=65|35=0|34=60|49=AB1013425_ORDER|52=20141015-09:18:06.928|56=HIQFIX|10=154|8=FIX.4.2|9=65|35=0|34=61|49=AB1013425_ORDER|52=20141015-09:18:37.924|56=HIQFIX|10=155|8=FIX.4.2|9=65|35=0|34=62|49=AB1013425_ORDER|52=20141015-09:19:08.920|56=HIQFIX|10=151|8=FIX.4.2|9=65|35=0|34=63|49=AB1013425_ORDER|52=20141015-09:19:39.655|56=HIQFIX|10=161|8=FIX.4.2|9=65|35=0|34=64|49=AB1013425_ORDER|52=20141015-09:20:09.914|56=HIQFIX|10=149|8=FIX.4.2|9=65|35=0|34=65|49=AB1013425_ORDER|52=20141015-09:20:40.912|56=HIQFIX|10=143|8=FIX.4.2|9=65|35=0|34=66|49=AB1013425_ORDER|52=20141015-09:21:11.909|56=HIQFIX|10=149|8=FIX.4.2|9=65|35=0|34=67|49=AB1013425_ORDER|52=20141015-09:21:42.906|56=HIQFIX|10=151|8=FIX.4.2|9=65|35=0|34=68|49=AB1013425_ORDER|52=20141015-09:22:13.903|56=HIQFIX|10=148|8=FIX.4.2|9=65|35=0|34=69|49=AB1013425_ORDER|52=20141015-09:22:44.901|56=HIQFIX|10=151|8=FIX.4.2|9=65|35=0|34=70|49=AB1013425_ORDER|52=20141015-09:23:15.898|56=HIQFIX|10=157|8=FIX.4.2|9=65|35=0|34=71|49=AB1013425_ORDER|52=20141015-09:23:46.895|56=HIQFIX|10=159|8=FIX.4.2|9=65|35=0|34=72|49=AB1013425_ORDER|52=20141015-09:24:17.893|56=HIQFIX|10=157|8=FIX.4.2|9=65|35=0|34=73|49=AB1013425_ORDER|52=20141015-09:24:48.890|56=HIQFIX|10=159|8=FIX.4.2|9=65|35=0|34=74|49=AB1013425_ORDER|52=20141015-09:25:19.887|56=HIQFIX|10=165|8=FIX.4.2|9=65|35=0|34=75|49=AB1013425_ORDER|52=20141015-09:25:50.884|56=HIQFIX|10=158|8=FIX.4.2|9=65|35=0|34=76|49=AB1013425_ORDER|52=20141015-09:26:21.882|56=HIQFIX|10=156|8=FIX.4.2|9=65|35=0|34=77|49=AB1013425_ORDER|52=20141015-09:26:52.879|56=HIQFIX|10=167|8=FIX.4.2|9=65|35=0|34=78|49=AB1013425_ORDER|52=20141015-09:27:23.876|56=HIQFIX|10=164|8=FIX.4.2|9=65|35=0|34=79|49=AB1013425_ORDER|52=20141015-09:27:54.874|56=HIQFIX|10=167|8=FIX.4.2|9=65|35=0|34=80|49=AB1013425_ORDER|52=20141015-09:28:25.871|56=HIQFIX|10=155|8=FIX.4.2|9=65|35=0|34=81|49=AB1013425_ORDER|52=20141015-09:28:56.867|56=HIQFIX|10=165|8=FIX.4.2|9=65|35=0|34=82|49=AB1013425_ORDER|52=20141015-09:29:27.865|56=HIQFIX|10=163|8=FIX.4.2|9=65|35=0|34=83|49=AB1013425_ORDER|52=20141015-09:29:58.863|56=HIQFIX|10=166|8=FIX.4.2|9=65|35=0|34=84|49=AB1013425_ORDER|52=20141015-09:30:29.860|56=HIQFIX|10=154|8=FIX.4.2|9=65|35=0|34=85|49=AB1013425_ORDER|52=20141015-09:31:00.856|56=HIQFIX|10=150|8=FIX.4.2|9=65|35=0|34=86|49=AB1013425_ORDER|52=20141015-09:31:30.866|56=HIQFIX|10=155|8=FIX.4.2|9=65|35=0|34=87|49=AB1013425_ORDER|52=20141015-09:32:01.852|56=HIQFIX|10=150|8=FIX.4.2|9=65|35=0|34=88|49=AB1013425_ORDER|52=20141015-09:32:32.849|56=HIQFIX|10=161|8=FIX.4.2|9=65|35=0|34=89|49=AB1013425_ORDER|52=20141015-09:33:03.846|56=HIQFIX|10=158|8=FIX.4.2|9=65|35=0|34=90|49=AB1013425_ORDER|52=20141015-09:33:34.842|56=HIQFIX|10=150|8=FIX.4.2|9=65|35=0|34=91|49=AB1013425_ORDER|52=20141015-09:34:05.840|56=HIQFIX|10=148|8=FIX.4.2|9=65|35=0|34=92|49=AB1013425_ORDER|52=20141015-09:34:36.838|56=HIQFIX|10=160|8=FIX.4.2|9=65|35=0|34=93|49=AB1013425_ORDER|52=20141015-09:35:07.835|56=HIQFIX|10=157|8=FIX.4.2|9=65|35=0|34=94|49=AB1013425_ORDER|52=20141015-09:35:38.831|56=HIQFIX|10=158|8=FIX.4.2|9=65|35=0|34=95|49=AB1013425_ORDER|52=20141015-09:36:09.610|56=HIQFIX|10=153|8=FIX.4.2|9=65|35=0|34=96|49=AB1013425_ORDER|52=20141015-09:36:39.611|56=HIQFIX|10=158|8=FIX.4.2|9=65|35=0|34=97|49=AB1013425_ORDER|52=20141015-09:37:09.613|56=HIQFIX|10=159|8=FIX.4.2|9=65|35=0|34=98|49=AB1013425_ORDER|52=20141015-09:37:39.630|56=HIQFIX|10=162|8=FIX.4.2|9=65|35=0|34=99|49=AB1013425_ORDER|52=20141015-09:38:09.818|56=HIQFIX|10=169|8=FIX.4.2|9=66|35=0|34=100|49=AB1013425_ORDER|52=20141015-09:38:40.815|56=HIQFIX|10=193|8=FIX.4.2|9=66|35=0|34=101|49=AB1013425_ORDER|52=20141015-09:39:11.813|56=HIQFIX|10=191|8=FIX.4.2|9=66|35=0|34=102|49=AB1013425_ORDER|52=20141015-09:39:42.810|56=HIQFIX|10=193|8=FIX.4.2|9=66|35=0|34=103|49=AB1013425_ORDER|52=20141015-09:40:13.808|56=HIQFIX|10=191|8=FIX.4.2|9=66|35=0|34=104|49=AB1013425_ORDER|52=20141015-09:40:44.805|56=HIQFIX|10=193|8=FIX.4.2|9=66|35=0|34=105|49=AB1013425_ORDER|52=20141015-09:41:15.802|56=HIQFIX|10=190|8=FIX.4.2|9=66|35=0|34=106|49=AB1013425_ORDER|52=20141015-09:41:46.800|56=HIQFIX|10=193|8=FIX.4.2|9=66|35=0|34=107|49=AB1013425_ORDER|52=20141015-09:42:17.796|56=HIQFIX|10=207|8=FIX.4.2|9=66|35=0|34=108|49=AB1013425_ORDER|52=20141015-09:42:48.793|56=HIQFIX|10=209|8=FIX.4.2|9=66|35=0|34=109|49=AB1013425_ORDER|52=20141015-09:43:19.791|56=HIQFIX|10=207|8=FIX.4.2|9=66|35=0|34=110|49=AB1013425_ORDER|52=20141015-09:43:50.788|56=HIQFIX|10=200|8=FIX.4.2|9=66|35=0|34=111|49=AB1013425_ORDER|52=20141015-09:44:21.786|56=HIQFIX|10=198|8=FIX.4.2|9=66|35=0|34=112|49=AB1013425_ORDER|52=20141015-09:44:52.782|56=HIQFIX|10=199|8=FIX.4.2|9=66|35=0|34=113|49=AB1013425_ORDER|52=20141015-09:45:23.780|56=HIQFIX|10=197|8=FIX.4.2|9=66|35=0|34=114|49=AB1013425_ORDER|52=20141015-09:45:54.777|56=HIQFIX|10=208|8=FIX.4.2|9=66|35=0|34=115|49=AB1013425_ORDER|52=20141015-09:46:25.774|56=HIQFIX|10=205|8=FIX.4.2|9=66|35=0|34=116|49=AB1013425_ORDER|52=20141015-09:46:56.772|56=HIQFIX|10=208|8=FIX.4.2|9=66|35=0|34=117|49=AB1013425_ORDER|52=20141015-09:47:27.768|56=HIQFIX|10=213|8=FIX.4.2|9=66|35=0|34=118|49=AB1013425_ORDER|52=20141015-09:47:58.766|56=HIQFIX|10=216|8=FIX.4.2|9=66|35=0|34=119|49=AB1013425_ORDER|52=20141015-09:48:29.763|56=HIQFIX|10=213|8=FIX.4.2|9=66|35=0|34=120|49=AB1013425_ORDER|52=20141015-09:49:00.760|56=HIQFIX|10=192|8=FIX.4.2|9=66|35=0|34=121|49=AB1013425_ORDER|52=20141015-09:49:31.757|56=HIQFIX|10=203|8=FIX.4.2|9=66|35=0|34=122|49=AB1013425_ORDER|52=20141015-09:50:02.755|56=HIQFIX|10=192|8=FIX.4.2|9=66|35=0|34=123|49=AB1013425_ORDER|52=20141015-09:50:33.751|56=HIQFIX|10=193|8=FIX.4.2|9=66|35=0|34=124|49=AB1013425_ORDER|52=20141015-09:51:04.749|56=HIQFIX|10=200|8=FIX.4.2|9=66|35=0|34=125|49=AB1013425_ORDER|52=20141015-09:51:35.747|56=HIQFIX|10=203|8=FIX.4.2|9=66|35=0|34=126|49=AB1013425_ORDER|52=20141015-09:52:06.744|56=HIQFIX|10=200|8=FIX.4.2|9=66|35=0|34=127|49=AB1013425_ORDER|52=20141015-09:52:37.740|56=HIQFIX|10=201|8=FIX.4.2|9=66|35=0|34=128|49=AB1013425_ORDER|52=20141015-09:53:08.738|56=HIQFIX|10=208|8=FIX.4.2|9=66|35=0|34=129|49=AB1013425_ORDER|52=20141015-09:53:39.566|56=HIQFIX|10=212|8=FIX.4.2|9=66|35=0|34=130|49=AB1013425_ORDER|52=20141015-09:54:09.568|56=HIQFIX|10=204|8=FIX.4.2|9=66|35=0|34=131|49=AB1013425_ORDER|52=20141015-09:54:39.730|56=HIQFIX|10=199|8=FIX.4.2|9=66|35=0|34=132|49=AB1013425_ORDER|52=20141015-09:55:10.727|56=HIQFIX|10=196|8=FIX.4.2|9=66|35=0|34=133|49=AB1013425_ORDER|52=20141015-09:55:41.724|56=HIQFIX|10=198|8=FIX.4.2|9=66|35=0|34=134|49=AB1013425_ORDER|52=20141015-09:56:12.722|56=HIQFIX|10=196|8=FIX.4.2|9=66|35=0|34=135|49=AB1013425_ORDER|52=20141015-09:56:43.719|56=HIQFIX|10=207|8=FIX.4.2|9=66|35=0|34=136|49=AB1013425_ORDER|52=20141015-09:57:14.716|56=HIQFIX|10=204|8=FIX.4.2|9=66|35=0|34=137|49=AB1013425_ORDER|52=20141015-09:57:45.713|56=HIQFIX|10=206|8=FIX.4.2|9=66|35=0|34=138|49=AB1013425_ORDER|52=20141015-09:58:15.735|56=HIQFIX|10=209|8=FIX.4.2|9=66|35=0|34=139|49=AB1013425_ORDER|52=20141015-09:58:46.707|56=HIQFIX|10=213|8=FIX.4.2|9=66|35=0|34=140|49=AB1013425_ORDER|52=20141015-09:59:17.705|56=HIQFIX|10=202|8=FIX.4.2|9=66|35=0|34=141|49=AB1013425_ORDER|52=20141015-09:59:48.702|56=HIQFIX|10=204|8=FIX.4.2|9=66|35=0|34=142|49=AB1013425_ORDER|52=20141015-10:00:19.699|56=HIQFIX|10=196|8=FIX.4.2|9=66|35=0|34=143|49=AB1013425_ORDER|52=20141015-10:00:50.696|56=HIQFIX|10=189|8=FIX.4.2|9=66|35=0|34=144|49=AB1013425_ORDER|52=20141015-10:01:21.694|56=HIQFIX|10=187|8=FIX.4.2|9=66|35=0|34=145|49=AB1013425_ORDER|52=20141015-10:01:52.692|56=HIQFIX|10=190|8=FIX.4.2|9=66|35=0|34=146|49=AB1013425_ORDER|52=20141015-10:02:23.688|56=HIQFIX|10=195|8=FIX.4.2|9=66|35=0|34=147|49=AB1013425_ORDER|52=20141015-10:02:54.686|56=HIQFIX|10=198|8=FIX.4.2|9=66|35=0|34=148|49=AB1013425_ORDER|52=20141015-10:03:25.682|56=HIQFIX|10=194|8=FIX.4.2|9=66|35=0|34=149|49=AB1013425_ORDER|52=20141015-10:03:56.680|56=HIQFIX|10=197|8=FIX.4.2|9=66|35=0|34=150|49=AB1013425_ORDER|52=20141015-10:04:27.676|56=HIQFIX|10=193|8=FIX.4.2|9=66|35=0|34=151|49=AB1013425_ORDER|52=20141015-10:04:58.674|56=HIQFIX|10=196|8=FIX.4.2|9=66|35=0|34=152|49=AB1013425_ORDER|52=20141015-10:05:29.671|56=HIQFIX|10=193|8=FIX.4.2|9=66|35=0|34=153|49=AB1013425_ORDER|52=20141015-10:06:00.668|56=HIQFIX|10=190|8=FIX.4.2|9=66|35=0|34=154|49=AB1013425_ORDER|52=20141015-10:06:31.666|56=HIQFIX|10=193|8=FIX.4.2|9=66|35=0|34=155|49=AB1013425_ORDER|52=20141015-10:07:02.662|56=HIQFIX|10=189|8=FIX.4.2|9=66|35=0|34=156|49=AB1013425_ORDER|52=20141015-10:07:33.659|56=HIQFIX|10=200|8=FIX.4.2|9=66|35=0|34=157|49=AB1013425_ORDER|52=20141015-10:08:04.657|56=HIQFIX|10=198|8=FIX.4.2|9=66|35=0|34=158|49=AB1013425_ORDER|52=20141015-10:08:35.654|56=HIQFIX|10=200|8=FIX.4.2|9=66|35=0|34=159|49=AB1013425_ORDER|52=20141015-10:09:06.651|56=HIQFIX|10=197|8=FIX.4.2|9=66|35=0|34=160|49=AB1013425_ORDER|52=20141015-10:09:37.648|56=HIQFIX|10=199|8=FIX.4.2|9=66|35=0|34=161|49=AB1013425_ORDER|52=20141015-10:10:08.645|56=HIQFIX|10=187|8=FIX.4.2|9=66|35=0|34=162|49=AB1013425_ORDER|52=20141015-10:10:39.519|56=HIQFIX|10=192|8=FIX.4.2|9=66|35=0|34=163|49=AB1013425_ORDER|52=20141015-10:11:09.640|56=HIQFIX|10=186|8=FIX.4.2|9=66|35=0|34=164|49=AB1013425_ORDER|52=20141015-10:11:40.637|56=HIQFIX|10=188|8=FIX.4.2|9=66|35=0|34=165|49=AB1013425_ORDER|52=20141015-10:12:11.635|56=HIQFIX|10=186|8=FIX.4.2|9=66|35=0|34=166|49=AB1013425_ORDER|52=20141015-10:12:42.632|56=HIQFIX|10=188|8=FIX.4.2|9=66|35=0|34=167|49=AB1013425_ORDER|52=20141015-10:13:13.629|56=HIQFIX|10=194|8=FIX.4.2|9=66|35=0|34=168|49=AB1013425_ORDER|52=20141015-10:13:44.626|56=HIQFIX|10=196|8=FIX.4.2|9=66|35=0|34=169|49=AB1013425_ORDER|52=20141015-10:14:15.624|56=HIQFIX|10=194|8=FIX.4.2|9=66|35=0|34=170|49=AB1013425_ORDER|52=20141015-10:14:46.621|56=HIQFIX|10=187|8=FIX.4.2|9=66|35=0|34=171|49=AB1013425_ORDER|52=20141015-10:15:17.618|56=HIQFIX|10=193|8=FIX.4.2|9=66|35=0|34=172|49=AB1013425_ORDER|52=20141015-10:15:48.615|56=HIQFIX|10=195|8=FIX.4.2|9=66|35=0|34=173|49=AB1013425_ORDER|52=20141015-10:16:19.612|56=HIQFIX|10=192|8=FIX.4.2|9=66|35=0|34=174|49=AB1013425_ORDER|52=20141015-10:16:50.609|56=HIQFIX|10=194|8=FIX.4.2|9=66|35=0|34=175|49=AB1013425_ORDER|52=20141015-10:17:21.606|56=HIQFIX|10=191|8=FIX.4.2|9=66|35=0|34=176|49=AB1013425_ORDER|52=20141015-10:17:52.603|56=HIQFIX|10=193|8=FIX.4.2|9=66|35=0|34=177|49=AB1013425_ORDER|52=20141015-10:18:23.600|56=HIQFIX|10=190|8=FIX.4.2|9=66|35=0|34=178|49=AB1013425_ORDER|52=20141015-10:18:54.598|56=HIQFIX|10=211|8=FIX.4.2|9=66|35=0|34=179|49=AB1013425_ORDER|52=20141015-10:19:25.595|56=HIQFIX|10=208|8=FIX.4.2|9=66|35=0|34=180|49=AB1013425_ORDER|52=20141015-10:19:56.592|56=HIQFIX|10=201|8=FIX.4.2|9=66|35=0|34=181|49=AB1013425_ORDER|52=20141015-10:20:27.589|56=HIQFIX|10=198|8=FIX.4.2|9=66|35=0|34=182|49=AB1013425_ORDER|52=20141015-10:20:58.587|56=HIQFIX|10=201|8=FIX.4.2|9=66|35=0|34=183|49=AB1013425_ORDER|52=20141015-10:21:29.584|56=HIQFIX|10=198|8=FIX.4.2|9=66|35=0|34=184|49=AB1013425_ORDER|52=20141015-10:22:00.580|56=HIQFIX|10=185|8=FIX.4.2|9=66|35=0|34=185|49=AB1013425_ORDER|52=20141015-10:22:31.578|56=HIQFIX|10=197|8=FIX.4.2|9=66|35=0|34=186|49=AB1013425_ORDER|52=20141015-10:23:02.575|56=HIQFIX|10=194|8=FIX.4.2|9=66|35=0|34=187|49=AB1013425_ORDER|52=20141015-10:23:33.573|56=HIQFIX|10=197|8=FIX.4.2|9=66|35=0|34=188|49=AB1013425_ORDER|52=20141015-10:24:04.570|56=HIQFIX|10=194|8=FIX.4.2|9=66|35=0|34=189|49=AB1013425_ORDER|52=20141015-10:24:35.566|56=HIQFIX|10=204|8=FIX.4.2|9=66|35=0|34=190|49=AB1013425_ORDER|52=20141015-10:25:06.564|56=HIQFIX|10=193|8=FIX.4.2|9=66|35=0|34=191|49=AB1013425_ORDER|52=20141015-10:25:37.561|56=HIQFIX|10=195|8=FIX.4.2|9=66|35=0|34=192|49=AB1013425_ORDER|52=20141015-10:26:08.559|56=HIQFIX|10=202|8=FIX.4.2|9=66|35=0|34=193|49=AB1013425_ORDER|52=20141015-10:26:39.475|56=HIQFIX|10=204|8=FIX.4.2|9=66|35=0|34=194|49=AB1013425_ORDER|52=20141015-10:27:09.478|56=HIQFIX|10=206|8=FIX.4.2|9=66|35=0|34=195|49=AB1013425_ORDER|52=20141015-10:27:39.550|56=HIQFIX|10=201|8=FIX.4.2|9=66|35=0|34=196|49=AB1013425_ORDER|52=20141015-10:28:10.547|56=HIQFIX|10=198|8=FIX.4.2|9=66|35=0|34=197|49=AB1013425_ORDER|52=20141015-10:28:41.545|56=HIQFIX|10=201|8=FIX.4.2|9=66|35=0|34=198|49=AB1013425_ORDER|52=20141015-10:29:12.571|56=HIQFIX|10=200|8=FIX.4.2|9=66|35=0|34=199|49=AB1013425_ORDER|52=20141015-10:29:43.539|56=HIQFIX|10=209|8=FIX.4.2|9=66|35=0|34=200|49=AB1013425_ORDER|52=20141015-10:30:14.536|56=HIQFIX|10=179|8=FIX.4.2|9=66|35=0|34=201|49=AB1013425_ORDER|52=20141015-10:30:45.534|56=HIQFIX|10=182|8=FIX.4.2|9=66|35=0|34=202|49=AB1013425_ORDER|52=20141015-10:31:16.530|56=HIQFIX|10=178|8=FIX.4.2|9=66|35=0|34=203|49=AB1013425_ORDER|52=20141015-10:31:47.528|56=HIQFIX|10=190|8=FIX.4.2|9=66|35=0|34=204|49=AB1013425_ORDER|52=20141015-10:32:18.525|56=HIQFIX|10=187|8=FIX.4.2|9=66|35=0|34=205|49=AB1013425_ORDER|52=20141015-10:32:49.522|56=HIQFIX|10=189|8=FIX.4.2|9=66|35=0|34=206|49=AB1013425_ORDER|52=20141015-10:33:20.519|56=HIQFIX|10=186|8=FIX.4.2|9=66|35=0|34=207|49=AB1013425_ORDER|52=20141015-10:33:51.517|56=HIQFIX|10=189|8=FIX.4.2|9=66|35=0|34=208|49=AB1013425_ORDER|52=20141015-10:34:22.513|56=HIQFIX|10=185|8=FIX.4.2|9=66|35=0|34=209|49=AB1013425_ORDER|52=20141015-10:34:53.510|56=HIQFIX|10=187|8=FIX.4.2|9=66|35=0|34=210|49=AB1013425_ORDER|52=20141015-10:35:24.508|56=HIQFIX|10=185|8=FIX.4.2|9=66|35=0|34=211|49=AB1013425_ORDER|52=20141015-10:35:55.516|56=HIQFIX|10=189|8=FIX.4.2|9=66|35=0|34=212|49=AB1013425_ORDER|52=20141015-10:36:26.504|56=HIQFIX|10=186|8=FIX.4.2|9=66|35=0|34=213|49=AB1013425_ORDER|52=20141015-10:36:57.500|56=HIQFIX|10=187|8=FIX.4.2|9=66|35=0|34=214|49=AB1013425_ORDER|52=20141015-10:37:28.497|56=HIQFIX|10=202|8=FIX.4.2|9=66|35=0|34=215|49=AB1013425_ORDER|52=20141015-10:37:59.494|56=HIQFIX|10=204|8=FIX.4.2|9=66|35=0|34=216|49=AB1013425_ORDER|52=20141015-10:38:30.492|56=HIQFIX|10=193|8=FIX.4.2|9=66|35=0|34=217|49=AB1013425_ORDER|52=20141015-10:39:01.488|56=HIQFIX|10=198|8=FIX.4.2|9=66|35=0|34=218|49=AB1013425_ORDER|52=20141015-10:39:32.485|56=HIQFIX|10=200|8=FIX.4.2|9=66|35=0|34=219|49=AB1013425_ORDER|52=20141015-10:40:03.483|56=HIQFIX|10=189|8=FIX.4.2|9=66|35=0|34=220|49=AB1013425_ORDER|52=20141015-10:40:34.480|56=HIQFIX|10=182|8=FIX.4.2|9=66|35=0|34=221|49=AB1013425_ORDER|52=20141015-10:41:05.477|56=HIQFIX|10=188|8=FIX.4.2|9=66|35=0|34=222|49=AB1013425_ORDER|52=20141015-10:41:36.475|56=HIQFIX|10=191|8=FIX.4.2|9=66|35=0|34=223|49=AB1013425_ORDER|52=20141015-10:42:07.471|56=HIQFIX|10=187|8=FIX.4.2|9=66|35=0|34=224|49=AB1013425_ORDER|52=20141015-10:42:38.468|56=HIQFIX|10=198|8=FIX.4.2|9=66|35=0|34=225|49=AB1013425_ORDER|52=20141015-10:43:09.466|56=HIQFIX|10=196|8=FIX.4.2|9=66|35=0|34=226|49=AB1013425_ORDER|52=20141015-10:43:40.463|56=HIQFIX|10=189|8=FIX.4.2|9=66|35=0|34=227|49=AB1013425_ORDER|52=20141015-10:44:11.461|56=HIQFIX|10=187|8=FIX.4.2|9=66|35=0|34=228|49=AB1013425_ORDER|52=20141015-10:44:42.458|56=HIQFIX|10=198|8=FIX.4.2|9=66|35=0|34=229|49=AB1013425_ORDER|52=20141015-10:45:13.455|56=HIQFIX|10=195|8=FIX.4.2|9=66|35=0|34=230|49=AB1013425_ORDER|52=20141015-10:45:44.452|56=HIQFIX|10=188|8=FIX.4.2|9=66|35=0|34=231|49=AB1013425_ORDER|52=20141015-10:46:15.448|56=HIQFIX|10=193|8=FIX.4.2|9=66|35=0|34=232|49=AB1013425_ORDER|52=20141015-10:46:46.446|56=HIQFIX|10=196|8=FIX.4.2|9=66|35=0|34=233|49=AB1013425_ORDER|52=20141015-10:47:17.444|56=HIQFIX|10=194|8=FIX.4.2|9=66|35=0|34=234|49=AB1013425_ORDER|52=20141015-10:47:48.441|56=HIQFIX|10=196|8=FIX.4.2|9=66|35=0|34=235|49=AB1013425_ORDER|52=20141015-10:48:19.438|56=HIQFIX|10=202|8=FIX.4.2|9=66|35=0|34=236|49=AB1013425_ORDER|52=20141015-10:48:50.435|56=HIQFIX|10=195|8=FIX.4.2|9=66|35=0|34=237|49=AB1013425_ORDER|52=20141015-10:49:21.432|56=HIQFIX|10=192|8=FIX.4.2|9=66|35=0|34=238|49=AB1013425_ORDER|52=20141015-10:49:52.430|56=HIQFIX|10=195|8=FIX.4.2|9=66|35=0|34=239|49=AB1013425_ORDER|52=20141015-10:50:23.426|56=HIQFIX|10=191|8=FIX.4.2|9=66|35=0|34=240|49=AB1013425_ORDER|52=20141015-10:50:54.424|56=HIQFIX|10=185|8=FIX.4.2|9=66|35=0|34=241|49=AB1013425_ORDER|52=20141015-10:51:25.421|56=HIQFIX|10=182|8=FIX.4.2|9=66|35=0|34=242|49=AB1013425_ORDER|52=20141015-10:51:56.417|56=HIQFIX|10=192|8=FIX.4.2|9=66|35=0|34=243|49=AB1013425_ORDER|52=20141015-10:52:27.415|56=HIQFIX|10=190|