8=FIX.4.2|9=82|35=A|34=1|49=AB1013425_ORDER|52=20141014-14:31:11.501|56=HIQFIX|98=0|108=30|141=Y|10=160|8=FIX.4.2|9=64|35=0|34=2|49=AB1013425_ORDER|52=20141014-14:31:42.378|56=HIQFIX|10=090|