8=FIX.4.2|9=82|35=A|34=1|49=AB1013425_PRICE|52=20141014-14:31:11.304|56=HIQFIX|98=0|108=30|141=Y|10=152|8=FIX.4.2|9=136|35=V|34=2|49=AB1013425_PRICE|52=20141014-14:31:33.545|56=HIQFIX|262=-1246431191|263=1|264=1|265=0|267=0|146=1|55=6E|48=4665696|207=XCME|10=042|